:0A0000000246B78FF7AF058FE32229
:10000B00024CFC90000DE0B4010704F07F2812575E
:10001B003490000DE0B4050704F07F48125734907C
:10002B00000DE0B4080504F012411D90000DE0B482
:10003B00090504F012386C220244EFEF4480FF12E2
:10004B0057341255897FED12522212571A12510250
:10005B00AD0712562C1255B2AF0522E5DB70FC2210
:10006B00023E179000FAE014B40E004003021C018C
:10007B0090008975F003A4C58325F0C58373021A1C
:10008B008D02139E021047020C88020B2C0207DC18
:10009B000204A002027502026002025D021C010250
:1000AB0001E802014F0200B3900117E0FFD3940166
:1000BB00400BEF9408500690011B7402F0E4900182
:1000CB0094F090011BE014600C147067900116748F
:1000DB0058F002026D7D107F01124813E4FDFF12F0
:1000EB0044B2D3900125E09423900124E094007D49
:1000FB000C7F0240061247A10D80041247A11D7F01
:10010B00021240F290018BE0C31330E00AE054FD81
:10011B00F09001167457F090018BE0FF1313543FCE
:10012B0020E00302223EE054FBF09001167458F0DD
:10013B0002223E12541F90011B7401F0E490011631
:10014B00F002223E900117E0FFD39401400BEF9495
:10015B0008500690011B7402F0E4900194F090019A
:10016B001BE014600614706F02026D7D0A7F011292
:10017B004813E4FDFF1244B29000F9E07D0C7F02BE
:10018B0060061247A10D80041247A11D7F02124089
:10019B00F290018BE0C31330E00AE054FDF09001C4
:1001AB00167453F090018BE0FF1313543F30E00AA9
:1001BB00E054FBF09001167455F090018BE020E0B9
:1001CB000302223EE054FEF090011BE004F090018C
:1001DB00167455F002223E12541F020C7F90011B25
:1001EB00E014703F7D0A7F021248130D7F02124408
:1001FB00B27D147F021247A11D7F021240F29001C3
:10020B007DE0600302223E9000F3E0600302223E99
:10021B009000FAF090011BF090017DF09000F3F04C
:10022B0002223E12541F90011B7401F0900143F007
:10023B00E0B4010D90017D7414F0E49000F3F080B4
:10024B000B9000F37414F0E490017DF0124C1F023C
:10025B00223E124FA712371212541F90018BE054FB
:10026B00F7F0E49000FAF002171D90011BE01470F8
:10027B000302041C1470030203AF14700302034344
:10028B0014606714600302048C90018BE0C313307D
:10029B00E004E054FDF090018BE01313543F30E089
:1002AB000AE054FBF090011B7404F090018BE030DA
:1002BB00E023E054FEF09000FA7403F090018BE021
:1002CB0054FEF0E054FDF0E054FBF0E04408F090F5
:1002DB00011B7440F0E4FDFF124813E4FF1244B21B
:1002EB007D0C7F011247A10D804690018BE0C3135B
:1002FB0030E00AE054FDF090011B7405F090018B87
:10030B00E01313543F30E004E054FBF090018BE01A
:10031B0030E00AE054FEF09000FA740AF0E4FDFFBE
:10032B00124813E4FF1244B27D0C7F011247A11D4A
:10033B007F011240F202223E7D127F011248131DF3
:10034B007F011244B27D137F011247A1900142E05D
:10035B0075F00A84ADF07F021240F2900101E05477
:10036B00BFF090018BE0C31330E010E054FDF09030
:10037B000142E0C394025003E004F090018BE0FFD4
:10038B001313543F30E010E054FBF0900142E0D3E4
:10039B0094014003E014F090018BE020E003022273
:1003AB003E02188C7D107F011248137D0B7F0112CA
:1003BB0044B27D137F011247A190013FE075F00A13
:1003CB0084ADF07F021240F2900101E054BFF09037
:1003DB00018BE0C31330E010E054FDF090013FE0DF
:1003EB00C394065003E004F090018BE0FF13135409
:1003FB003F30E010E054FBF090013FE0D39401401C
:10040B0003E014F090018BE020E00302223E02187F
:10041B008C7D117F011248137D137F011244B29022
:10042B00013EE075F00A8475F00A84FD7F021247E5
:10043B00A190013EE075F00A8475F00A84ADF07F5F
:10044B00021240F2900101E04440F090018BE0C3B6
:10045B001330E00AE054FDF090013E74F0F090018F
:10046B008BE0FF1313543F30E00AE054FBF0900194
:10047B003E7478F090018BE020E00302223E0218DC
:10048B008C12541F900101E054DFF0900109E044FD
:10049B0008F0020C7F90013CE09000F7F090013DDA
:1004AB00E09000F8F090011BE01470030206A81412
:1004BB0070030205D41460141460030207739000D8
:1004CB00FAE004F0E490011BF002078A12443E901C
:1004DB0000F7E0FEA3E0FF7C007D641229EC9000A6
:1004EB00F7ECF0A3EDF09000F7E0FEA3E0FF7C004B
:1004FB007D0A1229ECAD077F021247A19000F7E0AD
:10050B00FEA3E0FF7C007D0A1229ECE4FCFD9001C8
:10051B004B122BF31240E190018BE0FFC31330E041
:10052B0020E054FDF090014B122BBEE47B09FAF94D
:10053B00F8C3122B97500A90014B122BFF000000AF
:10054B000090018BE01313543F30E04AE054FBF072
:10055B00E4FFFEFDFC90014BE0F8A3E0F9A3E0FA09
:10056B00A3E0FBD3122B9790014B4023E0FCA3E0BD
:10057B00FDA3E0FEA3E0FFEF24FFFFEE34FFFEED53
:10058B0034FFFDEC34FFFC90014B122BF380071270
:10059B002BFF0000000990018BE030E00AE054FED5
:1005AB00F090011BE004F0E47F0AFEFDFC90014B90
:1005BB00E0F8A3E0F9A3E0FAA3E0FB122A6DC00672
:1005CB00C007E47F64FE02068712402590018BE092
:1005DB00FFC31330E020E054FDF090014B122BBE13
:1005EB00E47B09FAF9F8C3122B97500A90014B12CE
:1005FB002BFF0000000090018BE01313543F30E001
:10060B004AE054FBF0E4FFFEFDFC90014BE0F8A345
:10061B00E0F9A3E0FAA3E0FBD3122B9790014B4038
:10062B0023E0FCA3E0FDA3E0FEA3E0FFEF24FFFF2C
:10063B00EE34FFFEED34FFFDEC34FFFC90014B126A
:10064B002BF38007122BFF0000000990018BE03089
:10065B00E00AE054FEF090011BE004F0E47F64FE3E
:10066B00FDFC90014BE0F8A3E0F9A3E0FAA3E0FB5B
:10067B00122A6DC006C007E47FE87E03FDFC9001E3
:10068B0047E0F8A3E0F9A3E0FAA3E0FB122A6DD050
:10069B00E02FFBD0E03EFA90014F0207601247CCEF
:1006AB009000F7E0FEA3E0FF7C037DE81229EC90BD
:1006BB0000F7ECF0A3EDF09000F7E0FEA3E0FF7C79
:1006CB00007D641229ECAD077F011240B190018BC4
:1006DB00E0FFC31330E020E054FDF0900147122BF4
:1006EB00BEE47B09FAF9F8C3122B97500A90014725
:1006FB00122BFF0000000690018BE0FF1313543FF9
:10070B0030E022E054FBF090014774FF122BC0E461
:10071B007B01FAF9F8D3122B97400A900147122B61
:10072B00FF0000000990018BE030E00AE054FEF07E
:10073B0090011BE004F0E47FE87E03FDFC90014791
:10074B00E0F8A3E0F9A3E0FAA3E0FB122A6DAB07F4
:10075B00AA0690014BA3A3E0FEA3E02BFFEA3E9079
:10076B0000F7F0A3EFF0801712541F900101E04443
:10077B0020F0900109E04408F090011B7401F09007
:10078B00013BE024C8FF90013AE03400FEC3900027
:10079B00F8E09F9000F7E09E501490013BE024C8D6
:1007AB00FE90013AE034009000F7F0A3CEF0D39026
:1007BB0000F8E094AC9000F7E0942640077426F024
:1007CB00A374ACF09000F7E0FFA3E090013C020BA8
:1007DB002490013AE09000F7F090013BE09000F894
:1007EB00F090011BE01470030209E414700302097A
:1007FB0010146014146003020AD79000FAE004F09E
:10080B00E490011BF0020AEE12443E9000F7E0FE6A
:10081B00A3E0FF7C007D641229EC9000F7ECF0A3C1
:10082B00EDF09000F7E0FEA3E0FF7C007D0A1229BB
:10083B00ECAD077F021247A19000F7E0FEA3E0FFAB
:10084B007C007D0A1229ECE4FCFD90014B122BF38A
:10085B001240E190018BE0FFC31330E020E054FD28
:10086B00F090014B122BBEE47B09FAF9F8C3122B63
:10087B0097500A90014B122BFF0000000090018B48
:10088B00E01313543F30E04AE054FBF0E4FFFEFD6D
:10089B00FC90014BE0F8A3E0F9A3E0FAA3E0FBD353
:1008AB00122B9790014B4023E0FCA3E0FDA3E0FE4D
:1008BB00A3E0FFEF24FFFFEE34FFFEED34FFFDEC72
:1008CB0034FFFC90014B122BF38007122BFF00001F
:1008DB00000990018BE030E00AE054FEF090011B20
:1008EB00E004F0E47F0AFEFDFC90014BE0F8A3E08E
:1008FB00F9A3E0FAA3E0FB122A6DC006C007E47F60
:10090B0064FE0209C312402590018BE0FFC3133034
:10091B00E020E054FDF090014B122BBEE47B09FA72
:10092B00F9F8C3122B97500A90014B122BFF0000C2
:10093B00000090018BE01313543F30E04AE054FB6E
:10094B00F0E4FFFEFDFC90014BE0F8A3E0F9A3E01F
:10095B00FAA3E0FBD3122B9790014B4023E0FCA3AF
:10096B00E0FDA3E0FEA3E0FFEF24FFFFEE34FFFE6C
:10097B00ED34FFFDEC34FFFC90014B122BF38007A1
:10098B00122BFF0000000990018BE030E00AE054CD
:10099B00FEF090011BE004F0E47F64FEFDFC90018F
:1009AB004BE0F8A3E0F9A3E0FAA3E0FB122A6DC039
:1009BB0006C007E47FE87E03FDFC900147E0F8A347
:1009CB00E0F9A3E0FAA3E0FB122A6DD0E02FFBD0F5
:1009DB00E03EFA90014F020AC41247CC9000F7E0B8
:1009EB00FEA3E0FF7C037DE81229EC9000F7ECF00E
:1009FB00A3EDF09000F7E0FEA3E0FF7C007D641216
:100A0B0029ECAD077F011240B190018BE0FFC313BE
:100A1B0030E020E054FDF0900147122BBEE47B0642
:100A2B00FAF9F8C3122B97500A900147122BFF00CB
:100A3B0000000190018BE01313543F30E04BE05466
:100A4B00FBF0E47F01FEFDFC900147E0F8A3E0F929
:100A5B00A3E0FAA3E0FBD3122B979001474023E0CE
:100A6B00FCA3E0FDA3E0FEA3E0FFEF24FFFFEE34C9
:100A7B00FFFEED34FFFDEC34FFFC900147122BF32E
:100A8B008007122BFF0000000690018BE030E00A7C
:100A9B00E054FEF090011BE004F0E47FE87E03FDE0
:100AAB00FC900147E0F8A3E0F9A3E0FAA3E0FB1206
:100ABB002A6DAB07AA0690014BA3A3E0FEA3E02B84
:100ACB00FFEA3E9000F7F0A3EFF0801712541F904F
:100ADB000101E04420F0900109E04408F090011B73
:100AEB007401F0C39000F8E094149000F7E09405C3
:100AFB0050077405F0A37414F0D39000F8E09470D1
:100B0B009000F7E0941740077417F0A37470F090FF
:100B1B0000F7E0FFA3E090013ACFF0A3EFF0022241
:100B2B003E90011BE0147003020BEC146003020CEB
:100B3B00757D107F011248137D137F011244B29013
:100B4B000139E075F00A84FD7F021247A19001394B
:100B5B00E075F00A84ADF07F021240F290011CE0C8
:100B6B00C3940A900103E050054408F0800354F746
:100B7B00F0900102E04408F090018BE0C31330E0E9
:100B8B0010E054FDF0900139E0C394635003E0048E
:100B9B00F090018BE01313543F30E00AE054FBF06C
:100BAB00900139E014F090018BE030E00FE054FE3F
:100BBB00F09000FAE004F0E490011BF0900138E0B3
:100BCB00240AFFE433FEA3E0C39FEE6480F8748035
:100BDB0098400302223E900138E0240AA3F002223F
:100BEB003E7D107F011248137D137F011244B2909A
:100BFB000138E075F00A84FD7F021247A19001389D
:100C0B00E075F00A84ADF07F021240F290011CE017
:100C1B00C3940A900103E050054408F0800354F795
:100C2B00F0900102E04408F090018BE0C31330E038
:100C3B0010E054FDF0900138E0C394415003E00400
:100C4B00F090018BE0FF1313543F30E010E054FBA6
:100C5B00F0900138E0D394084003E014F090018B3E
:100C6B00E020E00302223E02188C12541F9001096F
:100C7B00E04408F090011B7401F002223E90011B2E
:100C8B00E0147003020F68147003020ECB14700390
:100C9B00020E2E147003020D7114600302100190EA
:100CAB000137E075F00A84900153F0900137E0753D
:100CBB00F00A84900154E5F0F090018BE0C31330FF
:100CCB00E013E054FDF0900154E004F0D364809401
:100CDB00894002E4F090018BE01313543F30E01491
:100CEB00E054FBF0900154E014F0C3648094805006
:100CFB00037409F0900153E075F00AA4FFA3E02FF1
:100D0B00900137F0900136E02405FFE433FEA3E0B9
:100D1B00C39FEE6480F87480985008900136E024ED
:100D2B0005A3F07D0A7F011248137D137F01124446
:100D3B00B2900137E075F00A84FD7F011247A19054
:100D4B000137E075F00A84ADF07F021240F290019A
:100D5B008BE020E00302223EE054FEF09000FAE02C
:100D6B0004F0E402171D900137E075F00A8490013E
:100D7B0053F0900137E075F00A84900154E5F0F0E0
:100D8B0090018BE0C31330E014E054FDF09001535D
:100D9B00E004F0D36480948940037405F090018BD8
:100DAB00E01313543F30E014E054FBF0900153E098
:100DBB0014F0C36480948550037409F0900153E0E0
:100DCB0075F00AA4FFA3E02F900137F0900136E0F5
:100DDB002405FFE433FEA3E0C39FEE6480F8748028
:100DEB00985008900136E02405A3F07D0A7F01128C
:100DFB0048137D137F011244B2900137E075F00A5E
:100E0B0084FD7F021247A1900137E075F00A84AD93
:100E1B00F07F011240F290018BE020E00302223EB2
:100E2B0002188C900136E075F00A84900153F09013
:100E3B000136E075F00A84900154E5F0F090018BD7
:100E4B00E0C31330E013E054FDF0900154E004F0E4
:100E5B00D3648094894002E4F090018BE013135427
:100E6B003F30E014E054FBF0900154E014F0C36405
:100E7B0080948050037409F0900153E075F00AA43C
:100E8B00FFA3E02F900136F07D157F011248137DF3
:100E9B00137F011244B2900136E075F00A84FD7F96
:100EAB00011247A1900136E075F00A84ADF07F0284
:100EBB001240F290018BE020E00302223E02188CDC
:100ECB00900136E075F00A84900153F0900136E002
:100EDB0075F00A84900154E5F0F090018BE0C31398
:100EEB0030E013E054FDF0900153E004F0D3648044
:100EFB0094874002E4F090018BE01313543F30E0F1
:100F0B0014E054FBF0900153E014F0C36480948020
:100F1B0050037407F0900153E075F00AA4FFA3E0AF
:100F2B002F900136F07D157F011248137D137F0141
:100F3B001244B2900136E075F00A84FD7F0212472D
:100F4B00A1900136E075F00A84ADF07F011240F2FA
:100F5B0090018BE020E00302223E02188C7D0B7F78
:100F6B00011248137D117F011244B27D137F0112D0
:100F7B0047A1900135E075F00A84ADF07F02124075
:100F8B00F2900109E054EFF090018BE0C31330E0D5
:100F9B0026E054FDF09001357402F090013874197D
:100FAB00F0A37442F0A37408F0A374FCF090013C1E
:100FBB007421F0A374CAF090018BE0FF1313543F1C
:100FCB0030E026E054FBF09001357401F0900138CD
:100FDB007412F0A3743AF0A3740BF0A374B8F090EE
:100FEB00013C7421F0A374CAF090018BE020E00364
:100FFB0002223E02188C12541F900109E04408F0A3
:10100B0090011B7401F0900135E0900138B4011090
:10101B007412F0A3743AF0A3740BF0A374B8800E9F
:10102B007419F0A37442F0A37408F0A374FCF0904D
:10103B00013C7421F0A374CAF002223E90011BE024
:10104B001470030212BF1470030212131470030204
:10105B00116024C37003021370243C6003021369F4
:10106B007D137F011248137F011244B27F01124797
:10107B00A190018BE0C4131313540120E00A9001DB
:10108B0022A3E0540FFD80027D137F021240F290E9
:10109B00018BE0C31330E02AE054FDF0E0547FF005
:1010AB00900123E0540FC39409E49400500DE00425
:1010BB00F0700F900122E004F08007900123E054C0
:1010CB00F0F090018BE0FF1313543F30E02DE05410
:1010DB00FBF0E0547FF0900123E0540FD39400E435
:1010EB009400400DE024FFF0900122E034FFF080EB
:1010FB000A900123E054F0F04409F090018BE020BA
:10110B00E00302223EE054FEF0E0131313541F20C1
:10111B00E028900122E0FEA3E0FF90012BE06E702F
:10112B0003A3E06F6006BE900DBF090A9000FAE0C2
:10113B0004F0E402171DE402171D900122E0FFA347
:10114B00E090012BCFF0A3EFF0124FA79000FA74B1
:10115B000AF002223E7D137F011248137F011244D5
:10116B00B290018BE0C41313540320E014900122BE
:10117B00E0C4F854F0C8A3E0C4540F48540FFD80EA
:10118B00027D137F021247A17D137F021240F29062
:10119B00018BE0C31330E02AE054FDF0E054BFF0C4
:1011AB00900123E054F0C39490E49400500DE0249C
:1011BB0010F0900122E03400F08007900123E054FE
:1011CB000FF090018BE0FF1313543F30E02DE054F0
:1011DB00FBF0E054BFF0900123E054F0D39400E413
:1011EB009400400DE024F0F0900122E034FFF080F9
:1011FB000A900123E0540FF04490F090018BE02013
:10120B00E00302223E02188C7D137F0112481390DB
:10121B00018BE0C413540720E009900122E0540F26
:10122B00FD80027D137F021244B27D137F021247B1
:10123B00A17F021240F290018BE0C31330E028E053
:10124B0054FDF0E054DFF0900122E0540FA3C3945F
:10125B0009500DE02400F0900122E03401F08007EA
:10126B00900122E054F0F090018BE0FF1313543FF8
:10127B0030E034E054FBF0E054DFF0900122E05416
:10128B000FFEA3D3E49400EE9400400DE02400F095
:10129B00900122E034FFF0800E900122E054F0F038
:1012AB00E04409F0A3E0F090018BE020E003022280
:1012BB003E02188C90018BE0C4540F20E00A900181
:1012CB0022E0C4540FFD80027D137F021248137D70
:1012DB00137F021244B27F021247A17F021240F227
:1012EB0090018BE0C31330E028E054FDF0E054EFA5
:1012FB00F0900122E054F0A3C39490500DE0240031
:10130B00F0900122E03410F08007900122E0540F9E
:10131B00F090018BE0FF1313543F30E034E054FBAB
:10132B00F0E054EFF0900122E054F0FEA3D3E494EC
:10133B0000EE9400400DE02400F0900122E034F028
:10134B00F0800E900122E0540FF0E04490F0A3E007
:10135B00F090018BE020E00302223E02188C9001FA
:10136B008BE054F7F012541F90011B7401F09001A5
:10137B0009E04408F07455900122F0A3F090018B22
:10138B00E04410F0E04420F0E04440F0E04480F012
:10139B0002223E90011BE0122C30194201189302DD
:1013AB0017E003172404168A1015D811152D1214E3
:1013BB007E1313C414000019F8900107E04402F0E7
:1013CB0090019AE0FF75F00A84900153F0EF75F0ED
:1013DB000A84A3E5F0F090018BE0C31330E013E037
:1013EB0054FDF0900154E004F0D3648094894002E2
:1013FB00E4F090018BE01313543F30E014E054FB06
:10140B00F0900154E014F0C364809480500374098D
:10141B00F0900153E075F00AA4FFA3E02F90019A1E
:10142B00F0900199E075F00A84FD7F01124813904A
:10143B000199E075F00A84ADF07F011244B290017E
:10144B009AE075F00A84FD7F011247A190019AE0A2
:10145B0075F00A84ADF07F021240F290018BE02010
:10146B00E00302223EE054FEF09000FAE004F0E4C8
:10147B0002171D900107E04402F090019AE0FF75FE
:10148B00F00A84900153F0EF75F00A84A3E5F0F0B5
:10149B0090018BE0C31330E013E054FDF090015347
:1014AB00E004F0D3648094854002E4F090018BE07B
:1014BB001313543F30E014E054FBF0900153E0144D
:1014CB00F0C36480948050037405F0900153E07571
:1014DB00F00AA4FFA3E02F90019AF0900199E07518
:1014EB00F00A84FD7F01124813900199E075F00A10
:1014FB0084ADF07F011244B290019AE075F00A843A
:10150B00FD7F021247A190019AE075F00A84ADF0BD
:10151B007F011240F290018BE020E00302223E0299
:10152B00188C900107E04402F0900199E0FF75F0F0
:10153B000A84900153F0EF75F00A84A3E5F0F09064
:10154B00018BE0C31330E013E054FDF0900154E045
:10155B0004F0D3648094894002E4F090018BE01393
:10156B0013543F30E014E054FBF0900154E014F0BE
:10157B00C36480948050037409F0900153E075F0BC
:10158B000AA4FFA3E02F900199F075F00A84FD7F68
:10159B0001124813900199E075F00A84ADF07F02B7
:1015AB001244B290019AE075F00A84FD7F01124754
:1015BB00A190019AE075F00A84ADF07F011240F220
:1015CB0090018BE020E00302223E02188C90010771
:1015DB00E04402F0900199E0FF75F00A849001530A
:1015EB00F0EF75F00A84A3E5F0F090018BE0C313E4
:1015FB0030E013E054FDF0900153E004F0D364802D
:10160B0094894002E4F090018BE01313543F30E0D7
:10161B0014E054FBF0900153E014F0C36480948009
:10162B0050037409F0900153E075F00AA4FFA3E096
:10163B002F900199F075F00A84FD7F0212481390E8
:10164B000199E075F00A84ADF07F011244B290016C
:10165B009AE075F00A84FD7F011247A190019AE090
:10166B0075F00A84ADF07F011240F2900103E04463
:10167B0001F090018BE020E00302223E02188C90D7
:10168B000107E04402F07D027F01124813E4FDFFE5
:10169B001244B2900198E0701390011CE0C3940ABD
:1016AB00501F7D0C7F011247A11D801190011CE082
:1016BB00C3940A500C7D0C7F011247A10D7F018052
:1016CB0008E4FDFF1247A1E4FF1240F290018BE00A
:1016DB00C31330E00AE054FDF090019874AAF09027
:1016EB00018BE0FF1313543F30E009E054FBF0E4AF
:1016FB00900198F090018BE020E00302223EE05431
:10170B00FEF0900198E06003021BE99000FAE00400
:10171B00F0E490011BF002223E900107E04402F03E
:10172B00900197E0FF75F00A84900153F0EF75F08C
:10173B000A84A3E5F0F090018BE0C31330E013E0D3
:10174B0054FDF0900154E004F0D36480948940027E
:10175B00E4F090018BE01313543F30E014E054FBA2
:10176B00F0900154E014F0C364809480500374092A
:10177B00F0900153E075F00AA4FFA3E02F900197BE
:10178B00F0900196E075F00A84FD7F0112481390EA
:10179B000196E075F00A84ADF07F011244B290011E
:1017AB0097E075F00A84FD7F011247A1900197E045
:1017BB0075F00A84ADF07F021240F290018BE020AD
:1017CB00E00302223EE054FEF090011B7410F01275
:1017DB00541F02223E900107E04402F0900197E073
:1017EB00FF75F00A84900153F0EF75F00A84A3E5BE
:1017FB00F0F090018BE0C31330E013E054FDF09058
:10180B000153E004F0D3648094854002E4F090012E
:10181B008BE01313543F30E014E054FBF090015372
:10182B00E014F0C36480948050037405F09001536E
:10183B00E075F00AA4FFA3E02F900197F0900196BA
:10184B00E075F00A84FD7F01124813900196E07554
:10185B00F00A84ADF07F011244B2900197E075F06D
:10186B000A84FD7F021247A1900197E075F00A846C
:10187B00ADF07F011240F290018BE020E0030222D9
:10188B003EE054FEF0021BE9900107E04402F090A9
:10189B000196E0FF75F00A84900153F0EF75F00AA2
:1018AB0084A3E5F0F090018BE0C31330E013E05418
:1018BB00FDF0900154E004F0D3648094894002E47D
:1018CB00F090018BE01313543F30E014E054FBF025
:1018DB00900154E014F0C36480948050037409F0B9
:1018EB00900153E075F00AA4FFA3E02F900196F04E
:1018FB0075F00A84FD7F01124813900196E075F094
:10190B000A84ADF07F021244B2900197E075F00AA1
:10191B0084FD7F011247A1900197E075F00A84AD19
:10192B00F07F011240F290018BE020E00302223E97
:10193B00E054FEF0021BE9900107E04402F0900135
:10194B0096E0FF75F00A84900153F0EF75F00A846E
:10195B00A3E5F0F090018BE0C31330E013E054FDEE
:10196B00F0900153E004F0D3648094894002E4F0DA
:10197B0090018BE01313543F30E014E054FBF090D4
:10198B000153E014F0C36480948050037409F09009
:10199B000153E075F00AA4FFA3E02F900196F075B8
:1019AB00F00A84FD7F02124813900196E075F00A4D
:1019BB0084ADF07F011244B2900197E075F00A8478
:1019CB00FD7F011247A1900197E075F00A84ADF0FD
:1019DB007F011240F2900103E04401F090018BE093
:1019EB0020E00302223EE054FEF0021BE9900107C7
:1019FB00E04402F07D017F01124813E41DFF124405
:101A0B00B2900195E0701390011CE0C3940A501F33
:101A1B007D0C7F011247A11D801190011CE0C39426
:101A2B000A500C7D0C7F011247A10D7F018008E449
:101A3B00FDFF1247A1E4FF1240F290018BE0C313AC
:101A4B0030E00AE054FDF090019574AAF090018B00
:101A5B00E0FF1313543F30E009E054FBF0E4900136
:101A6B0095F090018BE020E00302223EE054FEF063
:101A7B00900195E090011B6003021BFB7410F002B8
:101A8B00223E90011BE0147003021B4F14600302F3
:101A9B001BEE900126E0FF75F00A84900153F0EFE6
:101AAB0075F00A84A3E5F0F090018BE0C31330E0EE
:101ABB0013E054FDF0900154E004F0D3648094895A
:101ACB004002E4F090018BE01313543F30E014E03C
:101ADB0054FBF0900154E014F0C3648094805003E5
:101AEB007409F0900153E075F00AA4FFA3E02F9066
:101AFB000126F07D0F7F011248137D137F011244E5
:101B0B00B2900126E075F00A84FD7F011247A19087
:101B1B000126E075F00A84ADF07F021240F29001CD
:101B2B008BE020E00302223EE054FEF09000FAE04E
:101B3B0004F0E490011BF012541F900107E04402E3
:101B4B00F002223E900126E0FF75F00A84900153CB
:101B5B00F0EF75F00A84A3E5F0F090018BE0C3136E
:101B6B0030E013E054FDF0900153E004F0D36480B7
:101B7B0094894002E4F090018BE01313543F30E062
:101B8B0014E054FBF0900153E014F0C36480948094
:101B9B0050037409F0900153E075F00AA4FFA3E021
:101BAB002F900126F07D0F7F011248137D137F01CB
:101BBB001244B2900126E075F00A84FD7F021247B1
:101BCB00A1900126E075F00A84ADF07F011240F27E
:101BDB0090018BE020E00302223EE054FEF09001E6
:101BEB001B800D12541F900107E04402F090011B63
:101BFB00E004F002223E12541F90011BE01470030C
:101C0B00021FF3147003021F99147003021F29148F
:101C1B007003021CCE1460030220DF900120E0FE53
:101C2B00A3E0FFE4FCFD900147122BF3E47F0F7E52
:101C3B0027FDFC900147E0F8A3E0F9A3E0FAA3E04D
:101C4B00FBD3122B97400A900147122BFF00002762
:101C5B000FE47BE87A03F9F8900147E0FCA3E0FD81
:101C6B00A3E0FEA3E0FF12507EAD077F01124813E5
:101C7B00900147E0FCA3E0FDA3E0FEA3E0FFE47BC3
:101C8B00E87A03F9F812507EAC00AD01AE02AF0357
:101C9B00900147122BF3124743E47B0AFAF9F890B1
:101CAB000147E0FCA3E0FDA3E0FEA3E0FF12507EA2
:101CBB00AF03AD077F011240F2900101E04420F029
:101CCB0002221D900033E0FCEC5480900033603016
:101CDB00E0FCA3E0FDA3E0FEA3E0FF122B8AEF24C0
:101CEB0001FFE43EFEE43DFDE43CE4FC90014712C1
:101CFB002BF39001537401F07D13FF1248138016E0
:101D0B00E0FCA3E0FDA3E0FEA3E0FF900147122B54
:101D1B00F3E4900153F0E47F107E27FDFC90014724
:101D2B00E0F8A3E0F9A3E0FAA3E0FBC3122B974082
:101D3B0003021E18900147E0FCA3E0FDA3E0FEA305
:101D4B00E0FFE47B0AFAF9F812507E900147122B60
:101D5B00F3900147E0FCA3E0FDA3E0FEA3E0FFA3AB
:101D6B00122BF3900153E0703E7FE77E03FDFC9056
:101D7B00014BE0F8A3E0F9A3E0FAA3E0FBD3122BAD
:101D8B0097401EE47BE87A03F9F8900147E0FCA347
:101D9B00E0FDA3E0FEA3E0FF12507EAD077F0180C4
:101DAB0003E4FDFF124813900147E0FCA3E0FDA301
:101DBB00E0FEA3E0FFE47BE87A03F9F812507EAC77
:101DCB0000AD01AE02AF03900147122BF3E47F632A
:101DDB00FEFDFC90014BE0F8A3E0F9A3E0FAA3E0D1
:101DEB00FBD3122B97401DE47B64FAF9F890014763
:101DFB00E0FCA3E0FDA3E0FEA3E0FF12507EAD07E5
:101E0B007F018003E4FDFF1244B2021EEE900147F6
:101E1B00E0FCA3E0FDA3E0FEA3E0FFE47B64FAF9A2
:101E2B00F812507E900147122BF3900147E0FCA370
:101E3B00E0FDA3E0FEA3E0FFA3122BF3900153E020
:101E4B00703E7FE77E03FDFC90014BE0F8A3E0F9C9
:101E5B00A3E0FAA3E0FBD3122B97401EE47BE87AB6
:101E6B0003F9F8900147E0FCA3E0FDA3E0FEA3E03B
:101E7B00FF12507EAD077F018003E4FDFF12481374
:101E8B00900147E0FCA3E0FDA3E0FEA3E0FFE47BB1
:101E9B00E87A03F9F812507EAC00AD01AE02AF0345
:101EAB00900147122BF3E47F63FEFDFC90014BE0A6
:101EBB00F8A3E0F9A3E0FAA3E0FBD3122B97401DA4
:101ECB00E47B64FAF9F8900147E0FCA3E0FDA3E0A2
:101EDB00FEA3E0FF12507EAD077F018003E4FDFF00
:101EEB001244B2124761E47B0AFAF9F8900147E019
:101EFB00FCA3E0FDA3E0FEA3E0FF12507EAF03AD19
:101F0B00077F011240F2900103E04408F090010CAE
:101F1B00E04408F0900101E04402F002221D900021
:101F2B00FCE0FEA3E0FFE4FCFD900147122BF3E481
:101F3B007FE77E03FDFC900147E0F8A3E0F9A3E007
:101F4B00FAA3E0FBD3122B97400A900147122BFF09
:101F5B00000003E7E4FDFF124813124743E47B0A3A
:101F6B00FAF9F8900147E0FCA3E0FDA3E0FEA3E043
:101F7B00FF12507EAF03AD077F011240F2900103B9
:101F8B00E04408F0900101E04440F002221D900172
:101F9B0040E0640170297D157F011248137D137F8A
:101FAB00011244B2900141E075F00A84FD7F0112E9
:101FBB0047A1900141E075F00A84ADF00221257D27
:101FCB000A7F011248137D137F021244B29001085D
:101FDB00E075F00A84FD7F011247A1900108E075BE
:101FEB00F00A84ADF0022125C390010FE0648094C8
:101FFB00805020E0FEA3E0FFC3E49FFFE49EFE338E
:10200B0095E0FDFC900147122BF37D137F011248E5
:10201B0013807690010FE0FEA3E0FFEE3395E0FD19
:10202B00FC900147122BF3E47F63FEFDFC9001470C
:10203B00E0F8A3E0F9A3E0FAA3E0FBD3122B97405F
:10204B001DE47B64FAF9F8900147E0FCA3E0FDA3E3
:10205B00E0FEA3E0FF12507EAD077F018003E4FD9D
:10206B00FF124813900147E0FCA3E0FDA3E0FEA3A1
:10207B00E0FFE47B64FAF9F812507EAC00AD01AEE0
:10208B0002AF03900147122BF3E47B0AFAF9F890A5
:10209B000147E0FCA3E0FDA3E0FEA3E0FF12507EAE
:1020AB00AD077F011244B2E47B0AFAF9F8900147BD
:1020BB00E0FCA3E0FDA3E0FEA3E0FF12507EAF0324
:1020CB0012479D7D0F7F011240F2900104E04408FE
:1020DB00F002221D9000FBE0FFD394014044EF245B
:1020EB00FFFFE434FFFEE4FCFD900147122BF37D70
:1020FB00127F011248130D7F021244B2124786E47D
:10210B007B0AFAF9F8900147E0FCA3E0FDA3E0FE9F
:10211B00A3E0FF12507EAF03AD077F011240F20226
:10212B00221DC3900111E0648094805020E0FEA337
:10213B00E0FFC3E49FFFE49EFE3395E0FDFC9001BE
:10214B0047122BF37D137F011248138076900111F8
:10215B00E0FEA3E0FFEE3395E0FDFC900147122B70
:10216B00F3E47F63FEFDFC900147E0F8A3E0F9A3E5
:10217B00E0FAA3E0FBD3122B97401DE47B64FAF942
:10218B00F8900147E0FCA3E0FDA3E0FEA3E0FF1203
:10219B00507EAD077F018003E4FDFF1248139001D1
:1021AB0047E0FCA3E0FDA3E0FEA3E0FFE47B64FAC1
:1021BB00F9F812507EAC00AD01AE02AF03900147AF
:1021CB00122BF3E47B0AFAF9F8900147E0FCA3E049
:1021DB00FDA3E0FEA3E0FF12507EAD077F0112448A
:1021EB00B2E47B0AFAF9F8900147E0FCA3E0FDA307
:1021FB00E0FEA3E0FF12507EAF0312479D7D0F7FE1
:10220B00011240F2900104E04408F0900101E04417
:10221B0004F0900195E07006900198E06009900140
:10222B0007E04402F08007900107E054FDF0E490D2
:10223B0000FAF0900105E04440F0022EF390015EAD
:10224B00EFF090015FEDF0900160EBF0A3EAF0A3EB
:10225B00E9F090015FE0FF7E00EF7F00FE900164EC
:10226B00EEF0A3EFF0900164E0FEA3E0FF900166B7
:10227B00EEF0A3EFF0900164E0FEA3E0FF900168A5
:10228B00EEF0A3EFF0900168E0FEA3E0FFEF240077
:10229B00FFEE3401FE90016AEEF0A3EFF0900160C7
:1022AB00E0FBA3E0FAA3E0F990016EEBF0A3EAF0F8
:1022BB00A3E9F012585090016DE4F090016DE0FF2E
:1022CB00EFC39407400302261790016DE0FFEF1256
:1022DB002C3024FB0124FB0223E80323610423316C
:1022EB000522F3060000258A90016EE0FBA3E0FABD
:1022FB00A3E0F9900160EBF0A3EAF0A3E9F0900101
:10230B0064E0FEA3E0FF900160E0FBA3E0FAA3E032
:10231B00F9900163E0FD90015AEDF0124DCF900161
:10232B006D7407F080957F0012517A7F0112517AFC
:10233B00900168E0FEA3E0FF900164EEF0A3EFF0E4
:10234B0090016EE0FBA3E0FAA3E0F9900160EBF0E3
:10235B00A3EAF0A3E9F090016CE4F0900163E0FFD5
:10236B0090016CE0FEEEC39F504C900164E475F05D
:10237B0001122A57AFF0FE900160E0FBA3E475F069
:10238B0001122A57A9F0FA122960FD1254DB9001B1
:10239B006AE0FEA3E0FF900164E0FCA3E0FDC3ED67
:1023AB009FEE6480F8EC6480984003022331900127
:1023BB006CE004F080A5900164E0FEA3E0FF9001C7
:1023CB0063E0FD7C00C3EF9DFFEE9CFE900164EE8D
:1023DB00F0A3EFF090016D7406F00222C690015E3F
:1023EB00E0FFEF64AA600302248F90016AE0FEA372
:1023FB00E0FF900164E0FCA3E0FDC3ED9FEE648081
:10240B00F8EC6480984057900163E0FF7E009001E8
:10241B006AE0FCA3E0FDC3ED9FFFEC9EFE90016321
:10242B00E0FD7C00900164E0FAA3E0FBC3EB9DFDB3
:10243B00EA9CFCD3ED9FEE6480F8EC648098401E20
:10244B00900164E0FEA3E0FF900163E0FD7C00C31C
:10245B00EF9DFFEE9CFE900164EEF0A3EFF0900178
:10246B0064E0FEA3E0FF900163E0FD7C00C3EF9D01
:10247B00FFEE9CFE900164EEF0A3EFF090016D7403
:10248B0006F0802B90016AE0FEA3E0FF900164E070
:10249B00FCA3E0FDC3ED9FEE6480F8EC64809840F4
:1024AB000890016D7405F0800690016D7404F09036
:1024BB000165E024FEF0900164E034FFF0900168C8
:1024CB00E0FEA3E0FF900164E0FCA3E0FDC3ED9F01
:1024DB00EE6480F8EC64809840030222C690016899
:1024EB00E0FEA3E0FF900164EEF0A3EFF00222C642
:1024FB0090016AE0FEA3E0FF900164E0FCA3E0FD25
:10250B00C3ED9FEE6480F8EC648098402A90016DD7
:10251B007403F0900165E004F07006900164E00430
:10252B00F090015EE0FFEF645560030222C690015C
:10253B006D7405F00222C6900164E475F001122A55
:10254B0057AFF0FE1254AEEFB4FF0990016DE004EB
:10255B00F00222C690016DE4F0900163E0FF7E0073
:10256B00900167E02FF0900166E03EF0900166E08D
:10257B00FEA3E0FF900164EEF0A3EFF00222C69001
:10258B00016AE0FEA3E0FF900164E0FCA3E0FDC361
:10259B00ED9FEE6480F8EC648098402A90016D7496
:1025AB0003F0900165E02402F0900164E03400F048
:1025BB0090015EE0FFEF645560030222C690016D4F
:1025CB007405F00222C6900164E475F001122A57DB
:1025DB00AFF0FE1254AEEFB4FF0990016D7402F030
:1025EB000222C6900163E0FF7E00900167E02FF0AE
:1025FB00900166E03EF0900166E0FEA3E0FF9001E3
:10260B0064EEF0A3EFF00222C60222C6229001175D
:10261B00E0FFC394044016D3900112E09432900172
:10262B0011E0648094804005E4900190F090018F5C
:10263B00E0FE90018EE06E700302295FEEF09000D9
:10264B00F57401F0A374F4F0C390018DE0949090B5
:10265B00018CE09401500302274C90018FE024057C
:10266B00605C14700302270F14606C146003022962
:10267B005FEF7043D39000FDE094649000FCE09416
:10268B0000400CA3E094AA9000FCE094004021D3FE
:10269B009000FDE094BE9000FCE0940050030229F2
:1026AB005FA3E094409000FCE09401400302295F9B
:1026BB00900116745AF022900116745CF02290016E
:1026CB0017E0600302295F9000FAE0640C700302CC
:1026DB00295F740C022929900117E0600302295F1E
:1026EB00900190E064AA600302295F9000FAE06415
:1026FB000D700302295FE490011BF09000FA740D3A
:10270B00F00228709000FAE0FFD394004005EF949C
:10271B0009400BEFC3940C400DEF940D5008E4905F
:10272B0000FAF0022947EFB40E0790011BE004F00A
:10273B0022EF640D600302295F90018BE04401F0EE
:10274B002290018FE0240E700302285D14700302A7
:10275B0029191470030228AD1470030228F524F90B
:10276B0070030229341460762402600302295F90FF
:10277B0000FAE07059900141E0D394014009E01454
:10278B00F09001917406F090011B7402F09001948B
:10279B0004F0E4FFFEFDFC90012DE0F8A3E0F9A3AB
:1027AB00E0FAA3E0FBC3122BAD700302295F74FFA9
:1027BB00FFFEFDFC90012DE0F8A3E0F9A3E0FAA3E6
:1027CB00E0FBC3122BAD700302295F0228A6900118
:1027DB008BE054FEF0E054FDF0E04404806C90007C
:1027EB00FAE07058900141E0C394095009E004F0FD
:1027FB009001917406F090011B7402F09001940407
:10280B00F0E4FFFEFDFC90012DE0F8A3E0F9A3E05E
:10281B00FAA3E0FBC3122BAD700302295F74FFFF19
:10282B00FEFDFC90012DE0F8A3E0F9A3E0FAA3E094
:10283B00FBC3122BAD700302295F805F90018BE00D
:10284B0054FEF0E054FBF0E04402F0E490011C0273
:10285B0029589000FAE0701190011BE004F0D3941A
:10286B00044002E4F0E402292F90018BE054FDF0C8
:10287B00E054FBF0E04401F0900194740FF074FF0E
:10288B00FFFEFDFC90012DE0F8A3E0F9A3E0FAA315
:10289B00E0FBC3122BAD700302295F9000D374AA27
:1028AB00F0229000FAE004F0D394074008E4F09093
:1028BB000122F0A3F0900122E0FEA3E0FF90012B98
:1028CB00E06E7003A3E06F600B9000FAE0D394030B
:1028DB004002E4F0E490011BF090018BE054FEF019
:1028EB00E054FDF0E054FBF08064900140E0B40252
:1028FB00057401F080069001407402F09001917410
:10290B0006F090011B7402F090019404F0229001E8
:10291B0017E070409000FAE0640E6038740EF0E43B
:10292B0090011BF0900194F0229000FAE0FFC39409
:10293B0001400EEF94035009E004F0E490011BF00A
:10294B0022EF70109000FA04F0E490011BF090015C
:10295B0094740FF022BB010689828A83E022500215
:10296B00E722BBFE02E32289828A83E49322BB0126
:10297B000CE58229F582E5833AF583E0225006E9DE
:10298B002582F8E622BBFE06E92582F8E222E582E3
:10299B0029F582E5833AF583E49322BB010689820C
:1029AB008A83F0225002F722BBFE01F322F8BB010F
:1029BB000DE58229F582E5833AF583E8F02250068E
:1029CB00E92582C8F622BBFE05E92582C8F222EF73
:1029DB008DF0A4A8F0CF8CF0A428CE8DF0A42EFE01
:1029EB0022BC000BBE0029EF8DF084FFADF022E47A
:1029FB00CCF875F008EF2FFFEE33FEEC33FCEE9DB9
:102A0B00EC984005FCEE9DFE0FD5F0E9E4CEFD22DF
:102A1B00EDF8F5F0EE8420D21CFEADF075F008EF6A
:102A2B002FFFED33FD4007985006D5F0F222C398E7
:102A3B00FD0FD5F0EA22C5F0F8A3E028F0C5F0F8B9
:102A4B00E582158270021583E038F022A3F8E0C509
:102A5B00F025F0F0E582158270021583E0C838F09E
:102A6B00E822E88FF0A4CC8BF0A42CFCE98EF0A428
:102A7B002CFC8AF0EDA42CFCEA8EF0A4CDA8F08BF4
:102A8B00F0A42DCC3825F0FDE98FF0A42CCD35F03A
:102A9B00FCEB8EF0A4FEA9F0EB8FF0A4CFC5F02ECB
:102AAB00CD39FEE43CFCEAA42DCE35F0FDE43CFC34
:102ABB002275F008758200EF2FFFEE33FECD33CD7C
:102ACB00CC33CCC58233C5829BED9AEC99E58298C9
:102ADB00400CF582EE9BFEED9AFDEC99FC0FD5F0C8
:102AEB00D6E4CEFBE4CDFAE4CCF9A88222B800C13F
:102AFB00B90059BA002DEC8BF084CFCECDFCE5F0AC
:102B0B00CBF97818EF2FFFEE33FEED33FDEC33FCF2
:102B1B00EB33FB10D703994004EB99FB0FD8E5E49B
:102B2B00F9FA227818EF2FFFEE33FEED33FDEC337D
:102B3B00FCC933C910D7059BE99A4007EC9BFCE90C
:102B4B009AF90FD8E0E4C9FAE4CCFB2275F010EF48
:102B5B002FFFEE33FEED33FDCC33CCC833C810D78B
:102B6B00079BEC9AE899400AED9BFDEC9AFCE899DF
:102B7B00F80FD5F0DAE4CDFBE4CCFAE4C8F922CFB8
:102B8B00F4CFCEF4CECDF4CDCCF4CC22EB9FF5F03C
:102B9B00EA9E42F0E99D42F0EC6480C8648098455F
:102BAB00F022EB9FF5F0EA9E42F0E99D42F0E89CA3
:102BBB0045F0227401FF3395E0FEFDFCA3A3A3E0D7
:102BCB002FFFF0E582158270021583E03EFEF0E5E3
:102BDB0082158270021583E03DFDF0E5821582704F
:102BEB00021583E03CFCF022ECF0A3EDF0A3EEF039
:102BFB00A3EFF022A8828583F0D083D082122C160B
:102C0B00122C16122C16122C16E473E493A3C58304
:102C1B00C5F0C583C8C582C8F0A3C583C5F0C583FD
:102C2B00C8C582C822D083D082F8E4937012740195
:102C3B0093700DA3A393F8740193F5828883E473C7
:102C4B007402936860EFA3A3A380DFEC8EF0A4CC97
:102C5B00C5F0CCCDF8EFA4CEC5F02DFDE43CFCE8DF
:102C6B00A42EC8C5F03DFDE43CFCEFA4FFE5F02825
:102C7B00FEE43DFDE43CFC229000D3E064AA60033B
:102C8B00022D83F0A37417F090012DE09000D6F085
:102C9B0090012EE09000D7F090012FE09000D8F03B
:102CAB00900130E09000D9F0900117E09000DAF03D
:102CBB009000FBE09000DBF09000FCE09000DCF07B
:102CCB009000FDE09000DDF0E47B107A27F9F8909E
:102CDB000004E0FCA3E0FDA3E0FEA3E0FF12507EA6
:102CEB00AC00AD01AE02AF03E47B64FAF9F812500D
:102CFB007E9000DEEFF0900111E09000DFF090018C
:102D0B0012E09000E0F0900141E09000E1F09001C2
:102D1B0040E09000E2F090006CE09000E3F0900057
:102D2B0033E09000E4F0900034E09000E5F0900088
:102D3B0035E09000E6F0900036E09000E7F0900070
:102D4B00AEE0FF04F09000E8EFF07B017A0079D45D
:102D5B009000D4E024FEFDE434FFFC1249549000B3
:102D6B00A8E09000E9F09000A9E09000EAF0900054
:102D7B00B07401F09000F4F09000B3E06455600380
:102D8B00022EF2A3E0FF64096003022EF29000BA58
:102D9B00E0FE9000ADE06E7003022EF27B017A0034
:102DAB0079B4EF24FEFDE434FFFC124954E49000A7
:102DBB00B3F09000A9E0FF9000BCE06F6003022E1F
:102DCB00F29000A8E0FF9000BBE06F6003022EF2D0
:102DDB009000BAE09000ADF09000B5E0FFB4AA31DE
:102DEB009000F3E0D3940040289000B6E090012DC2
:102DFB00F09000B7E090012EF09000B8E090012F1A
:102E0B00F09000B9E0900130F09001917405F080E2
:102E1B003C9000B6E0FE90012DE06E6003022EF2B6
:102E2B009000B7E0FE90012EE06E6003022EF29050
:102E3B0000B8E0FE90012FE06E6003022EF29000CE
:102E4B00B9E0FE900130E06E6003022EF29000D3E9
:102E5B0074AAF0E49000D5F0EF24D5601324EF6052
:102E6B005B24FE605E241A706790018F74F58058A6
:102E7B00900117E06008900116745CF08052D390BB
:102E8B0000FDE094649000FCE09400400CA3E094FF
:102E9B00AA9000FCE09400401BD39000FDE094BE90
:102EAB009000FCE094004028A3E094409000FCE0EC
:102EBB009401501C900116745AF0801490018F7479
:102ECB00FD800590018F74FBF0E490018CF0A3F072
:102EDB009000F5E4F0A374FAF09000F3E06008E4DE
:102EEB00F09000D574AAF02290011CE0FDC3940A67
:102EFB005009900104E04404F080149000FBE0FFC3
:102F0B0064026004EFB40307900104E054FBF090FB
:102F1B0000FBE0FC64046015D39000FFE09450903C
:102F2B0000FEE09400900107E04011800AEDC3948D
:102F3B000A900107E050054480F08003547FF0ECC9
:102F4B006405600F9000F9E09001096003E08010C8
:102F5B00E0801290011CE0C3940A900109E0500537
:102F6B004410F0800354EFF090011CE0C3940A501E
:102F7B0009900107E04440F080149000FBE0FF64EF
:102F8B00066004EFB40A07900107E054BFF090000D
:102F9B00FBE0B407047F028015900117E0FFD39488
:102FAB00004009EF940850047F018002E4FF1245B2
:102FBB0090E4FFFEFDFC90012DE0F8A3E0F9A3E007
:102FCB00FAA3E0FBC3122BAD90010A600BE0440F98
:102FDB00F0A3E04408F08009E054F0F0A3E054F7CC
:102FEB00F090011CE0D3940A4009900107E054DFF4
:102FFB00F0800E9000FBE0B40807900107E044203E
:10300B00F0900195E07006900198E060099001073F
:10301B00E04402F08007900107E054FDF09001407E
:10302B00E06401900107600AE054F7F0E04404F01B
:10303B008008E054FBF0E04408F0900140E0B4015C
:10304B0006A3E0FF124387900117E0FF900106E013
:10305B006F601FEFF06401600EEF64026009EF64B4
:10306B00066004EFB4070B90010E745AF0E4900164
:10307B001BF090010EE0D394004061900117E0FF2C
:10308B0064016004EFB40218E4FDFF124813E4FF7F
:10309B001244B27D0C7F021247A10D7F021240F247
:1030AB00900117E0FF64066004EFB40718E4FDFF1E
:1030BB001248137D0C7F021244B21D7F021247A1EE
:1030CB007F021240F2900104E054FDF0900103E006
:1030DB0054F7F0A3E054F7F0E054FEF0229001B166
:1030EB00E0FFEFC3941450030232BD9001B1E4F042
:1030FB009001AFE004FFF0EFD3941440709001AF58
:10310B00E4F090011BE0FFEF700B9000FAE0FFEF93
:10311B0070031257CE900194E0FFEFD3940040154B
:10312B00900194E014FFF0EF700B9000FA7409F02B
:10313B0090011BE4F09001A6E0FFEFD39400400652
:10314B009001A6E014F0900058E0FFEFD3940040FC
:10315B0016900058E014F09000FBE0FFEFB4080D60
:10316B009000FBE4F080069000FB7408F090000DDB
:10317B00E004FFF0EFD3940A400590000DE4F090CB
:10318B00011CE004FFF0EFD39414402790011CE4E2
:10319B00F090017DE0FFEFD39400400690017DE0BD
:1031AB0014F09000F3E0FFEFD3940040069000F38F
:1031BB00E014F090010EE0FFEFD394004006900175
:1031CB000EE014F0900191E0FFEFD39400401D90BE
:1031DB000191E014FFF0EF70137B017A01792790D6
:1031EB0001637420F07D007F551222489000F5E0BA
:1031FB00FEA3E0FFD3EF9400EE940040799000F52E
:10320B0074FF75F0FF122A41AFF0FEEF4E70339052
:10321B0001ABE0FEA3E0FF7C007D14122C567B6417
:10322B007A0079007800122AF89001ABE0FCA3E059
:10323B00FDC3ED9FFFEC9EFE9001ADEEF0A3EFF012
:10324B0080319001ABE0FEA3E0FF7C007D5A122C95
:10325B00567B647A0079007800122AF89001ABE073
:10326B00FCA3E0FDC3ED9FFFEC9EFE9001ADEEF0E5
:10327B00A3EFF01250C290017CE0FFEFD39400401B
:10328B000890017CE014F0800A90017AE4F0900140
:10329B007BE4F09000B1E0FEA3E0FFD3EF9400EEEF
:1032AB009400400E9000B2E024FFF09000B1E034A7
:1032BB00FFF0229000A6E020E00302343B90005A7E
:1032CB00E0900147F07B017A007959FD7C001249AF
:1032DB0054900147E02459F582E43400F583E0FF74
:1032EB009000A8E0FEEF6E6003023434900147E0DB
:1032FB0004F02459F582E43400F583E0FF9000A933
:10330B00E0FEEF6E6003023434900059E0249660C7
:10331B000302342E9001837401F0A37400F0A374A4
:10332B005BF0900059E0900186F090005AE0245831
:10333B00F582E43400F583E0900187F090005AE0C9
:10334B0024FD900188F07B017A00795B12462A906C
:10335B00005BE0FF900133E06F600302342E9001BD
:10336B0016E060129000ABE004F0D39403400CE441
:10337B00900116F08005E49000ABF090005CE090BB
:10338B000117F090005DE09000FBF090005EE09084
:10339B0000FCF090005FE09000FDF0900060E0908A
:1033AB000120F0900061E0900121F0900062E0902C
:1033BB000113F0900063E0900114F0900064E09032
:1033CB00011DF0900065E090011EF0900066E0900A
:1033DB0000FEF0900067E09000FFF0900068E09036
:1033EB00010DF0900069E09000F9F090006BE09017
:1033FB000111F090006CE0900112F090006DE090E4
:10340B00010FF090006EE0900110F090006FE090D3
:10341B000124F0900070E0900125F0900073E09093
:10342B000108F09000587464F09000A6E054FEF090
:10343B0022900172E0FFC31320E0030235A7900135
:10344B007DE0D394004034900176E0FEB40506A3F2
:10345B00E06404600BEEB41122900177E0B4581BCA
:10346B00900174E090012EF0900175E090012FF027
:10347B00E490017DF09001917406F0900174E0FEF0
:10348B0090012EE06E60030235A0900175E0FE9076
:10349B00012FE06E60030235A0900176E0FE9001F3
:1034AB007AE0B50610900177E0FD90017BE0B50561
:1034BB0004A302359D90017AEEF0900177E0900124
:1034CB007BF09000F57401F0A374F4F090017AE0B6
:1034DB00FEB40826A3E0B47821900141E0C394091F
:1034EB005009E004F09001917406F090011B7402F6
:1034FB00F090019404F090017CF0EEB4022890015E
:10350B007BE0B44421900141E0D394014009E014E5
:10351B00F09001917406F090011B7402F0900194ED
:10352B0004F090017CF090017AE0B40511A3E0B4B3
:10353B00040C900116745CF090017C7403F0900104
:10354B007AE06411704FA3E064587049D39000FD8A
:10355B00E094649000FCE09400400CA3E094AA90EB
:10356B0000FCE09400401BD39000FDE094BE900063
:10357B00FCE094004019A3E094409000FCE094011F
:10358B00500D900116745AF0E490018CF0A3F0905A
:10359B00017C7403F0EF54FD900172F0229000F463
:1035AB00E0B4080040030237119035BBF8282873AC
:1035BB000236C00236AB0236A802369002363F0204
:1035CB0036250236060235D3125289123BE27F01B1
:1035DB001256C31257F01257921252EF12535590C4
:1035EB000143E064019000F4600D7406F09000B1AB
:1035FB00E4F0A3743CF0227408F02230C309125299
:10360B00899000F47405F09000B1E07002A3E060C3
:10361B00030237119000F404F0227B017A0079B495
:10362B007D0F7C00124BAD9000B37455F09000F4FD
:10363B007401F022123BE27F021256C312577B90A9
:10364B0000D4E0FF7E001251EC1258007B017A008F
:10365B0079D59000D4E024FFFDE434FFFC124B3B02
:10366B007F6E125764EF20E1069000F47402F012A3
:10367B0052BC1253229000F47403F09000B1E4F0AA
:10368B00A3740CF02230C3069000F47401F0900088
:10369B00B1E07002A3E0706E9000F48066124C1FD4
:1036AB001253ED9000B0E070069000AFE06057E46D
:1036BB009000F4F022125289123BE29000B0E060CD
:1036CB00139000F47404F09000B0E014F09000AF8D
:1036DB007405F0229000AFE0602C9000F47407F0BA
:1036EB009000AFE014F0701E9000F3E0D3940090C4
:1036FB0000AF400F7401F09000D374AAF0E4900077
:10370B00D5F0227402F022124E3290019E122BF34E
:10371B007F007E007D007C0090019EE0F8A3E0F925
:10372B00A3E0FAA3E0FBC3122BAD601C7FFF7EFF6F
:10373B007DFF7CFF90019EE0F8A3E0F9A3E0FAA3E4
:10374B00E0FBC3122BAD700A90019E122BFF2022BF
:10375B0009197B017A0179279001637420F07D00B0
:10376B007FAA122248900127E0FF90019EE0FEEE17
:10377B00B5071C900128E0FF90019FE0FEEEB50716
:10378B000E900129E0FF9001A0E0FEEE6F605890D3
:10379B00019EE0FF900127EFF090019FE0FF900169
:1037AB0028EFF09001A0E0FF900129EFF09001A22B
:1037BB00E4F09001A2E0FFEFC3941A50249001A211
:1037CB00E0FFEF9059FB93FF9001A2E0FE742B2ECC
:1037DB00F582E43401F583EFF09001A2E004F08070
:1037EB00D1124FA702375D900116E4F0900117E05C
:1037FB00FF900106EFF090010EE4F0900058741E5C
:10380B00F09000FBE4F09000FCE4F0A3E4F09001F6
:10381B0013E4F0A3E4F0900120E4F0A3E4F09001B2
:10382B001DE4F0A3E4F09000FEE4F0A3E4F09000BC
:10383B00F9E4F0900111E4F0A3E4F090010FE4F04F
:10384B00A3E4F0900124E4F0A3E4F0900108E4F089
:10385B009000F3E4F09000D374AAF09000D5E4F05C
:10386B00227F0D120046EF644060030239987F11EE
:10387B001257341255897FED12522212571A124DDC
:10388B0066900004122BF3125604124D6690000939
:10389B00122BF312562C1255B2900008E0C3940869
:1038AB005025A3E0FCA3E0FDA3E0FEA3E0FF900006
:1038BB0008E0FB04F0EB25E025E02413F582E4346B
:1038CB0000F583122BF322900033122BFF00000024
:1038DB0000E4900008F0900008E0C3940850429078
:1038EB000033E0FCA3E0FDA3E0FEA3E0FF900008A3
:1038FB00E0FB04F0EB25E025E02413F582E4340033
:10390B00F583E0F8A3E0F9A3E0FAA3E0FBEF2BFFCC
:10391B00EE3AFEED39FDEC38FC900033122BF380C0
:10392B00B5900033E0FCA3E0FDA3E0FEA3E0FFE4D1
:10393B007B08FAF9F812507E900033122BF39000AB
:10394B0033E0FCA3E0FDA3E0FEA3E0E4FFFEFDEC0F
:10395B005480FCE4FBFAF97880C3122BAD702990EC
:10396B000033E0FCA3E0FDA3E0FEA3E0FF122B8AF3
:10397B00EF2401FFE43EFEE43DFDE43CFCEFEEED05
:10398B00E4FC900033122BF3E4900008F022E5C026
:10399B0090017230E306E04401F08004E054FEF045
:1039AB00900172E0FFC31330E003023ABD90017F38
:1039BB00E0147003023A7724FE6024046003023A99
:1039CB00AAEF20E00790017F7403F022900171E0D1
:1039DB0014F0C3648094704003023ABD023AA49081
:1039EB000172E0FF30E06F90017EE0FE2474F582FF
:1039FB00E43401F583E025E0F0900171E0D36480BD
:103A0B009480501074742EF582E43401F583E044F5
:103A1B0001F0801190017EE02474F582E43401F50D
:103A2B0083E054FEF0E4900171F090017F7402F09A
:103A3B00900173E004F05407700690017EE004F0EF
:103A4B00900173E0C3941F4069E490017FF0EF4451
:103A5B0002900172F022900171E004F0C364809433
:103A6B0090404F90017F7401F0E4803E900172E032
:103A7B0030E019900171E0C3648094B25002801958
:103A8B00E4900171F090017F7402F022900171E0DB
:103A9B0004F0C3648094E44019E490017FF0229019
:103AAB00017F7401F0E4900171F0900173F09001CB
:103ABB007EF0227FFF20DC011F20D804EF54FDFF96
:103ACB0020D904EF54FBFF20DB04EF54FCFF20DA7A
:103ADB0004EF54FAFF90018FE0FE6F602F90018C82
:103AEB00E475F001122A41FCD3E5F09405EC940047
:103AFB005003023BE190018FEFF064FA6003023B4D
:103B0B00E1900192E004F0A374C8F022EE64FE6031
:103B1B000D90018FE0FF64FB6004EFB4FD35C390A3
:103B2B00018DE0949090018CE094014003023BE105
:103B3B009000FAE06003023BE190018C75F00112FA
:103B4B002A41FEE5F064907003EE64016003023BD2
:103B5B00E1802990018FE0B4FC29C390018DE094A2
:103B6B009090018CE09401506DE475F001122A41A4
:103B7B00FEE5F064907003EE6401705A90018E7450
:103B8B00FFF022E490018CF0A3F0900193E0D3942A
:103B9B00004043E014F0703E900192E0FFB4010747
:103BAB0090018F74F28023EFB4020D9000FAE07055
:103BBB000790018F74F58012900192E0B40312907C
:103BCB0000FAE0700C90018F74F3F090018E74FF8B
:103BDB00F0E4900192F022E4900157F0A3F0A3F0EF
:103BEB007F6612576490015AEFF07F0030E5027F39
:103BFB000190015AEFF07F6D125764900156EFF070
:103C0B007F6A125764AE0790015AE0600990015623
:103C1B00E0F4F0EEF4FE900156E0FD30E707900182
:103C2B0058E04420F0ED30E607900158E04401F0F5
:103C3B00900156E030E507900158E04401F0900107
:103C4B0056E0FD30E40C900158E04410F0A3E04442
:103C5B0010F0ED30E30C900158E04408F0A3E04481
:103C6B0008F0900156E030E20C900158E04404F06B
:103C7B00A3E04404F0900156E0FF30E10C900158B2
:103C8B00E04402F0A3E04402F0EF30E00C90015866
:103C9B00E04401F0A3E04401F0EE30E50E90015753
:103CAB00E04402F0900159E04480F0EE30E40E90D5
:103CBB000157E04401F0900159E04440F0EE30E34D
:103CCB000E900157E04404F0900159E04420F0902D
:103CDB000157E0FD7F6A12574D900158E0FD7F6B55
:103CEB0012574D90015AE06006900159E0F4F090A4
:103CFB000159E0FF22900119E0FF04F0EF1470036B
:103D0B00023D93146051146003023DDE900102E00A
:103D1B00540FFD7F02120003900102E0C4540FFD0B
:103D2B007F03120003900103E0540FFD7F04120088
:103D3B0003900103E0C4540FFD7F051200039001B3
:103D4B000AE0540FFD7F0E12000390010AE0C454E9
:103D5B000FFD7F0F12000390010BE0540FFD7F103E
:103D6B0012000390010BE0C4540FFD7F11120003EE
:103D7B0090010CE0540FFD7F1212000390010CE038
:103D8B00C4540FFD7F138048900104E0540FFD7F56
:103D9B0006120003900104E0C4540FFD7F071200CC
:103DAB0003900105E0540FFD7F08120003900105FD
:103DBB00E0C4540FFD7F09120003900107E0540F7C
:103DCB00FD7F0A120003900107E0C4540FFD7F0B27
:103DDB00020003900109E0540FFD7F0C12000390C9
:103DEB000109E0C4540FFD7F0D120003900101E0A7
:103DFB00540FFDE4FF120003900101E0C4540FFDCA
:103E0B007F011200039001197401F022C0E0C0F091
:103E1B00C083C082C0D075D000C000C002C003C038
:103E2B0004C005C006C007E5EE30E20375EE04E5FD
:103E3B00EE30E10375EE02E5EE20E003023F09757B
:103E4B00EE01900195E064AA70569000FAE0705074
:103E5B00900196E0FF7E007C007D3C1229DAA3E006
:103E6B002FFBEC3EFAEB1B70011A144A70149001F5
:103E7B0095F0A37463F0A3743BF0900116745AF0A1
:103E8B00801E7C007D3CAF03AE021229EC900196A4
:103E9B00EFF07C007D3CAF03AE021229ECA3EDF0FA
:103EAB00900198E064AA70569000FAE0705090016F
:103EBB0099E0FF7E007C007D3C1229DAA3E02FFB0A
:103ECB00EC3EFAEB1B70011A144A7014900198F037
:103EDB00A37463F0A3743BF0900116745CF0801E26
:103EEB007C007D3CAF03AE021229EC900199EFF000
:103EFB007C007D3CAF03AE021229ECA3EDF0D007A2
:103F0B00D006D005D004D003D002D000D0D0D082C0
:103F1B00D083D0F0D0E0329000AAE0D39478400C5C
:103F2B00E4F09000A6E04402F01241F49000A6E009
:103F3B00C31320E00302402443A9049001837401BE
:103F4B00F0A37400F0A37483F0900082E0FF900163
:103F5B0086F09000A4E0900187F0EF24FDA3F07BA6
:103F6B00017A00798312462A900082E090014BF08F
:103F7B007B017A007981FD7C001249549000A8E006
:103F8B00FF90014BE0FE04F074812EF582E43400C7
:103F9B00F583EFF09000A9E0FF90014BE02481F551
:103FAB0082E43400F583EFF0900147EBF0A374004B
:103FBB00F0A37481F0900147E0FBA3E475F00112CC
:103FCB002A57A9F0FA122960FF12555F900147E0BA
:103FDB00FBA3E475F001122A57A9F0FA122960909D
:103FEB00014AF0E0802090014AE0FF14F0EFD394F7
:103FFB00004019900147E0FBA3E475F001122A572A
:10400B00A9F0FA122960FF12555F80DA9000A6E042
:10401B0054FDF09000AC7403F0229000F7E0FEA387
:10402B00E0FF7C037DE81229ECE4FCFD90014712D4
:10403B002BF39000F7E0FEA3E0FF7C007D641229D8
:10404B00ECAE04AF05E4FCFD90014F122BF3900096
:10405B00F7E0FEA3E0FF7C037DE81229ECAD077FC0
:10406B00011248139000F7E0FEA3E0FF7C037DE80C
:10407B001229EC9000F7ECF0A3EDF09000F7E0FEC6
:10408B00A3E0FF7C007D641229ECE4FCFD90014B66
:10409B00122BF39000F7E0FEA3E0FF7C007D64128F
:1040AB0029ECAD077F021244B29000F7E0FEA3E0CB
:1040BB00FF7C007D641229EC9000F7ECF0A3EDF08F
:1040CB009000F7E0FEA3E0FF7C007D0A1229ECAD27
:1040DB00077F011247A19000F7E0FEA3E0FF7C00F1
:1040EB007D0A1229EC7F01AE07900102E05408F023
:1040FB00EE14600C14701A90011CE0D3940A50114A
:10410B00900102E0FFED905A1593FEEF4E900102E5
:10411B00F0227F0D120046EF644060030241F37FF3
:10412B00301257341255897FED12522212571A1240
:10413B004D6690000F122BF312562C1255B29000B5
:10414B000EE0C394085025A3E0FCA3E0FDA3E0FE22
:10415B00A3E0FF90000EE0FB04F0EB25E025E0244C
:10416B0037F582E43400F583122BF3229000001212
:10417B002BFF00000000E490000EF090000EE0C357
:10418B0094085042900000E0FCA3E0FDA3E0FEA3E6
:10419B00E0FF90000EE0FB04F0EB25E025E0243778
:1041AB00F582E43400F583E0F8A3E0F9A3E0FAA389
:1041BB00E0FBEF2BFFEE3AFEED39FDEC38FC900007
:1041CB0000122BF380B5900000E0FCA3E0FDA3E010
:1041DB00FEA3E0FFE47B08FAF9F812507E90000092
:1041EB00122BF3E490000EF0229000A4E004F09068
:1041FB00008174A6F0A37418F0900133E090008353
:10420B00F0900116E0900084F0900135E09000856D
:10421B00F0900136E0900086F0900137E090008737
:10422B00F0900138E0900088F0900139E09000891F
:10423B00F090013AE090008AF090013BE090008B07
:10424B00F090013CE090008CF090013DE090008DEF
:10425B00F090013EE090008EF090013FE090008FD7
:10426B00F0900140E0900090F0900141E0900091BF
:10427B00F0900126E0900092F0E47B64FAF9F8905C
:10428B000033E0FCA3E0FDA3E0FEA3E0FF12507EB1
:10429B0090014CEEF0A3EFF090014CE0900093F006
:1042AB0090014DE0900094F0900142E0900095F069
:1042BB00E4A3F0A3F09000A4E0900098F0227580A6
:1042CB00009080047402F09080057401F0908006D9
:1042DB007402F075900075A00075B0FF90801A7491
:1042EB0005F090801B7405F090801C7442F0908157
:1042FB003CE4F075C0F79080237401F09080247437
:10430B0002F09080257422F09080267422F0908029
:10431B00277422F075D8FF9080287481F090802943
:10432B007481F090802A7481F090802B7481F090CE
:10433B00802C7481F0908148E4F0908149E4F090F6
:10434B00814AE4F090814BE4F090814CE4F075A944
:10435B00C09080307481F09080317482F090803204
:10436B007482F075D9FF90018BE4F0900117E4F0A3
:10437B00900191E4F090019074AAF022AD07C3EF85
:10438B0064809480500AEF64809489400302443D1A
:10439B00900104E0540FF0A3E05450F0EDB40A0088
:1043AB00400302443D9043B7F82828730243D502DB
:1043BB0043DA0243E20243EA0243F20243FA0244C3
:1043CB000202441102442002442F900105803290D6
:1043DB000105E044A0F022900105E044A1F02290F9
:1043EB000105E044A3F022900105E044A7F02290E0
:1043FB000105E044AFF022900105E044AFF09001DD
:10440B0004E04480F022900105E044AFF0900104F9
:10441B00E044C0F022900105E044AFF0900104E0CD
:10442B0044E0F022900105E044AFF0900104E04439
:10443B00F0F0229000F7E0FEA3E0FF7C007D641219
:10444B0029ECE4FCFD900147122BF39000F7E0FE02
:10445B00A3E0FF7C007D0A1229ECAE04AF05E4FC5F
:10446B00FD90014F122BF39000F7E0FEA3E0FF7CD1
:10447B00037DE81229ECAD077F011248139000F77A
:10448B00E0FEA3E0FF7C037DE81229EC9000F7EC43
:10449B00F0A3EDF09000F7E0FEA3E0FF7C007D645D
:1044AB001229ECAD077F01AE0790010BE0540FF022
:1044BB00A3E054F8F0EE14600C14702790011CE08C
:1044CB00D3940A501E90010BE0FFED905A1593FE0A
:1044DB0054F0FCEF4C90010BF0A3E0FFEE5407FE01
:1044EB00EF4EF022C0E0C083C082C0D075D000C0B8
:1044FB0006C007E5A130E06CE5A154FE4401F5A12F
:10450B00AFA2900057740CF09000A6E020E06990E9
:10451B0000A5E0FE2459F582E43400F583EFF0EEBC
:10452B0014600E047018EF646A600BEFF4702A804D
:10453B00059000A7EFF09000A5E004F0801B900021
:10454B00A5E004F09000A7E014F0C39401500A908A
:10455B0000A5E4F0A3E04401F09000A5E0C394288B
:10456B004002E4F0E5A130E10FE5A154FD4402F572
:10457B00A19000A6E054FBF0D007D006D0D0D0829B
:10458B00D083D0E032EF14602214707C90011CE0D9
:10459B00D3940A900109E040055438F0800344C7D6
:1045AB00F0E4900118F090011FF02290011AE0FF47
:1045BB0090011FE0D39F4066E4F0EFD394034006D5
:1045CB0090011AE014F0900109E044C7F090011833
:1045DB00E0FF04F0EF14602114601614600B1470EC
:1045EB0020900109E054BFF022900109E0547FF0C4
:1045FB0022900109E054FBF022900109E054FEF0F7
:10460B00229001187401800F900109E05438F0E4F6
:10461B00900118F090011FF090011A7428F022906D
:10462B000180EBF0A3EAF0A3E9F0900187E0FF90A3
:10463B000186E0FEEE6FFF90018AEFF090018AE0B9
:10464B00FFEF600990018AE0FFEFB4FF1290018A3F
:10465B00E0FFEF4488FFEFC313FF90018AEFF09068
:10466B000189E4F0900188E0FF900189E0FEEEC340
:10467B009F5038900183E0FBA3E475F001122A5799
:10468B00A9F0FA122960FF90018AE0FEEF6EFF900D
:10469B000180E0FBA3E475F001122A57A9F0FAEFB1
:1046AB001229A6900189E004F080B922787FE4F604
:1046BB00D8FD75810F0246FE0249D2E493A3F8E4BC
:1046CB0093A34003F68001F208DFF48029E493A35F
:1046DB00F85407240CC8C333C4540F4420C8834078
:1046EB0004F456800146F6DFE4800B010204081047
:1046FB0020408090586CE47E019360BCA3FF543F34
:10470B0030E509541FFEE493A360010ECF54C0257E
:10471B00E060A840B8E493A3FAE493A3F8E493A36E
:10472B00C8C582C8CAC583CAF0A3C8C582C8CAC5D2
:10473B0083CADFE9DEE780BEE47B64FAF9F8900117
:10474B0047E0FCA3E0FDA3E0FEA3E0FF12507EAD2B
:10475B00077F011244B2900147E0FCA3E0FDA3E008
:10476B00FEA3E0FFE47B64FAF9F812507EAC00ADD7
:10477B0001AE02AF03900147122BF3E47B0AFAF967
:10478B00F8900147E0FCA3E0FDA3E0FEA3E0FF12DD
:10479B00507EAD077F01AE07900103E05408F0EEA9
:1047AB0014600C14701A90011CE0D3940A501190F1
:1047BB000103E0FFED905A1593FEEF4E900103F0CD
:1047CB00229000F7E0FEA3E0FF7C037DE81229ECCA
:1047DB00E4FCFD900147122BF39000F7E0FEA3E001
:1047EB00FF7C037DE81229ECAE04AF05E4FCFD90E1
:1047FB00014B122BF39000F7E0FEA3E0FF7C037D4F
:10480B00E81229ECAD077F02AE0790010AE0540FC6
:10481B00F0A3E054F8F0EE14600C14702790011C18
:10482B00E0D3940A501E90010AE0FFED905A1593C5
:10483B00FE54F0FCEF4C90010AF0A3E0FFEE54079E
:10484B00FEEF4EF022900147122BF37F2890005978
:10485B00E4F0A3DFFC7F23900081E4F0A3DFFC9066
:10486B0080307484F09080317404F0E47F20FEFD7E
:10487B00FC900147E0F8A3E0F9A3E0FAA3E0FB12F8
:10488B002A6DA804A905AA06AB077F007E1B7DB77E
:10489B007C00122AF8C3E49F90014CF074049E90A4
:1048AB00014BF0E0F5A4A3E0F5A375A1D0D2E9E4A8
:1048BB009000A5F0900057F09000A6F09000AC741B
:1048CB000AF0E49000AAF0229001AB7407F0A374F5
:1048DB0008F09001ADE4F0A374C8F09000F57401FA
:1048EB00F0A374F4F090014AE4F090014BE4F090E3
:1048FB00014CE4F07B007D007F0612525690014A7A
:10490B00E4F090014BE4F090014CE4F07B007D006F
:10491B007F0712525690014AE4F090014BE4F0905D
:10492B00014CE4F07B057D007F0612513E90014A5D
:10493B00E4F090014BE4F090014CE4F07B057D003A
:10494B007F0712513E1250C222900155ECF0A3ED9D
:10495B00F074FF9000A8F0A3F0E4900157F0A3F0DF
:10496B00900155E0FEA3E0FFC3900158E09F90013A
:10497B0057E09E50519000A9E0FF122960FEEF6EA8
:10498B009000A9F0E4FD9000A9E05401FC9000A870
:10499B00E0C313F0A3E013F0AF04EFB4010C9000ED
:1049AB00A8E064A0F0A3E06401F00DEDB408D774A7
:1049BB000129F9E43AFA900158E004F070A2900151
:1049CB0057E004F0809A227F207E03125534125850
:1049DB00711258451242C9124E957F5E7E011255D7
:1049EB0034124EF77FC87E001255341257BC124A50
:1049FB00C41248D37F4C7E1D7D007C0012485012A0
:104A0B0057A91256A4124C8F1237121256E2124C9F
:104A1B001FD2AF7F087E07125534124A4C1230E872
:104A2B0012343C122618124A4C12000E12006E124F
:104A3B003D001232BE123F22122C831235A880DDAC
:104A4B0022900134E0D394034002E4F09001A3E000
:104A5B0070089001A6F09001A5F09001A6E0FFD39D
:104A6B0094004054EF5407704F900134E075F017E9
:104A7B00A4900147F09001A5E0FF900147E02FF0D3
:104A8B003084357FFE1250387F1E7E0012553490D5
:104A9B0001A4E0FF1250387F1E7E001255347FF3C5
:104AAB001250387F1E7E00125534900147E0FF12E2
:104ABB0050389001A6E014F0229080007403F0901F
:104ACB008001F0908002F0908003F0908010F090C5
:104ADB008011F0908012F0908013F0908014F09081
:104AEB008015F0908016F0908017F090800FF0906A
:104AFB00800EF090800DF090800CF090800BF09079
:104B0B00800AF0908009F0908008F0908035F0904A
:104B1B008034F0908033F090014A7406F0A3E4F0F7
:104B2B00A37464F07B027D037F051254800258103E
:104B3B00900147EBF0A3EAF0A3E9F0A3ECF0A3EDAF
:104B4B00F0D2C7D2C6E4A3F0A3F090014AE0FEA3D3
:104B5B00E0FFC390014DE09F90014CE09E5042C29C
:104B6B00C712550E900147E0FBA3E0FAA3E0F990C2
:104B7B00014CE0FEA3E0F5828E83122979FF1254DB
:104B8B00507F047E00125512D2C77F067E0012554D
:104B9B001290014DE004F070B190014CE004F080F4
:104BAB00A922900147EBF0A3EAF0A3E9F0A3ECF004
:104BBB00A3EDF0D2C7D2C6E4A3F0A3F090014AE074
:104BCB00FEA3E0FFC390014DE09F90014CE09E508F
:104BDB0042C2C712550E1253BB900147E0FBA3E034
:104BEB00FAA3E0F990014CE0FCA3E0F5828C83EF93
:104BFB001229B87F047E00125512D2C77F067E00A1
:104C0B0012551290014DE004F070B190014CE0048C
:104C1B00F080A92212567C125388900143E0640164
:104C2B0070217E597F3B7D60124F507F0912576474
:104C3B00EF54F8900155F04402FD7F0912574D7F58
:104C4B0010801F7E587F7B7D60124F507F0912575B
:104C5B0064EF54F8900155F04402FD7F0912574D53
:104C6B007F2012585EE4FF1255DBE49000B0F09009
:104C7B0000AF7402F09000B1E4F0A37402F0900066
:104C8B00F414F022125700E49000FBF090005874DB
:104C9B0064F0900126742DF0E49000FCF0A3F090EA
:104CAB000113F0A3F0900120F0A3F090011DF0A3ED
:104CBB00F09000FEF0A3F09000F9F0900111F0A33A
:104CCB00F090010FF0A3F0900124F0A3F0900116E7
:104CDB00F0A3E0900106F0E4900118F0A3F090002F
:104CEB00FA7409F0E490011BF090018BE054F7F09B
:104CFB0022C0E0C0F0C083C082C0D075D008C28D86
:104D0B00758A82758CFF1239999001B0E004F0C35B
:104D1B009414403C9001B0E4F0A3E004F090011F28
:104D2B00E004F09000AAE004F0123ABE900057E0C5
:104D3B00D394004005E014F080059000A5E4F090BA
:104D4B0000ACE0D394004008E014F0700353A9FBCF
:104D5B00D0D0D082D083D0F0D0E032900147122B4C
:104D6B00FF00000000125102900148EFF0125604B0
:104D7B00125102900149EFF01256041251029001A8
:104D8B004AEFF0900147E0FCA3E0FDA3E0FEA3E0B7
:104D9B00E4FFFEED5480FDE4FCED6019900147E06B
:104DAB00FCA3E0FDA3E0FEA3E0FFEEED74FFFC909F
:104DBB000147122BF3900147E0FCA3E0FDA3E0FEBB
:104DCB00A3E0FF22900157EBF0A3EAF0A3E9F0ACCC
:104DDB0006C2AFE490FC01F090FC03742AF0EC9057
:104DEB00FC06F090FC05EFF090FC017401F0E4FF81
:104DFB00FE90015AE0FDC3EF9DEE9400502090FC15
:104E0B0002E0FD900157E0FBA3E475F001122A5775
:104E1B00A9F0FAED1229A60FBF00010E80D390FC6A
:104E2B000374AAF0D2AF22C2AF90FC03742BF090A4
:104E3B00FC017480F090FC067401F090FC05E4F02A
:104E4B0090FC017481F090FC02E0FF9001A7EFF061
:104E5B0090FC02E0FF9001A8EFF090FC02E0FF90C5
:104E6B0001A9EFF090FC02E0FF9001AAEFF090FC9B
:104E7B0001E4F090FC0374AAF0D2AF9001A7E0FC20
:104E8B00A3E0FDA3E0FEA3E0FF2290803A7403F0C1
:104E9B00908039F07F327E0012581F908080E04462
:104EAB0008F0E030E2EE90014A7401F0E4A3F0A3C5
:104EBB00F07B01FD7F011251B57F2C7E0112581F33
:104ECB00E41BFDFF1256541257CE7B3BE4FDFF1241
:104EDB00583AD2EE900195F0A37463F0A3743BF0B3
:104EEB00E4A3F0A37463F0A3743BF022C2AF9080F1
:104EFB0080E0FFEF4440FF908080EFF0908080E0F7
:104F0B00FFEF30E2F77595BE7594BC759301759202
:104F1B00907591C0E59154C0FFEF70F8908081E0DF
:104F2B00FFEF54F8FF908081EFF075AE88E5AE305F
:104F3B00E0FB908081E0FFEF54F8FFEF4404FF901B
:104F4B008081EFF022900156EEF0A3EFF0A3EDF08D
:104F5B00E4A3F0900158E0FFA3E0C39F503D900104
:104F6B0056E475F001122A5785F082F583E493908D
:104F7B00015AF0900156E475F001122A5785F08220
:104F8B00F583E49390015BF090015AE0FFA3E0FD01
:104F9B0012574D900159E004F080B8227B017A0141
:104FAB00792B7D1A7C001249549000A8E0FEA3E0F7
:104FBB00FF900145E0FCA3E0FDED6F7002EC6E602D
:104FCB00239000A8E0FEA3E0FF900145EEF0A3EFD5
:104FDB00F07B017A0179279001637420F07D007FCB
:104FEB005512224822900148EDF0900147EFF05402
:104FFB001FF0E0FFC0077F66125764EF54E0FED04E
:10500B00E04E900147F0FD7F6612574D900148E04E
:10501B00541FF0E0FFC0077F67125764EF54E0FEA8
:10502B00D0E04E900148F0FD7F6702574D9001484C
:10503B00EFF0C285D2867F327E00125534E49001A8
:10504B0049F0C285900148E030E004D2868002C26C
:10505B00867F057E00125534D2857F057E00125562
:10506B0034900148E0C313F0A3E004F0E0C39408CC
:10507B0040D022C2D5E830E70FB2D5E4C39BFBE4A6
:10508B009AFAE499F9E498F8EC30E717B2D5125094
:10509B00B4122AF8E4C39BFBE49AFAE499F9E49876
:1050AB00F88003122AF830D50DE4C39FFFE49EFE6F
:1050BB00E49DFDE49CFC229001ABE0FCA3E0FD90A1
:1050CB0001ADE0FAA3E0FB7F061257DF7F401258D9
:1050DB00751200669001ABE0FCA3E0FD9001ADE022
:1050EB00FAA3E0FB7F071257DF7F8012587512007F
:1050FB00667FC012587822E4FD90801D7421F0E485
:10510B00FB43B0107F017E0012582DED25E0FD30E2
:10511B00B5054401FD8004ED54FEFD53B0EF7F0156
:10512B007E0012582D0BEBB408D790801D7422F023
:10513B00AF05228FF7EF30E014ED33333354F8FF24
:10514B00E5DD54F04FFF90014CE04F800FAF05EFC2
:10515B0033333354F8FFE5DD54F04F4BF5DD90015D
:10516B004AE0C43333335480FFA3E04FF5DE22C251
:10517B00AFEF75F080A4FF900155E5F0F0A3EFF0D1
:10518B00E490FC01F090FC03742AF0900155E09040
:10519B00FC06F0900156E090FC05F090FC017403C6
:1051AB00F090FC0374AAF0D2AF22AE05EEC43333F9
:1051BB0054C0FEEFC433333354804EFFAE03EEC402
:1051CB003354E04FFF90014AE0C454F04FFFA3E08B
:1051DB0033333354F84FFFA3E025E025E04FF5F1CF
:1051EB0022900147EEF0A3EFF07F45125764AD0715
:1051FB00ED548FFD900147E0C4F854F0C8A3E0C410
:10520B00540F4854704DFD7F4512574D900147A3E5
:10521B00E0FD7F4602574DAD0790801D7422F0E4F0
:10522B00FBED30E70543B020800353B0DFED25E005
:10523B00FD7F017E0012582D43B0107F017E0012BE
:10524B00582D53B0EF0BEBB408D7228FF7AF05EF08
:10525B00C43333335480FFE5DD540F4FFFAE03EE01
:10526B00C4333354C04FFF90014AE0C43354E04F72
:10527B00FFA3E0C454F04FF5DDA3E0F5DC22900171
:10528B00567427F0A37410F07D027F6012574D7F88
:10529B0061125764EF540FFFBF0207E4900156F001
:1052AB00A3F090015674FFF5F0122A5745F070DF0A
:1052BB00229001477427F0A37410F07D207F6012B9
:1052CB00574D7F61125764EF540FFFBF0407E490F3
:1052DB000147F0A3F090014774FFF5F0122A5745F0
:1052EB00F070DF229001477427F0A37410F07D0457
:1052FB007F6012574D7F61125764EF540FFFBF034E
:10530B0007E4900147F0A3F090014774FFF5F0120A
:10531B002A5745F070DF229001477427F0A37410D1
:10532B00F07D407F6012574D7F61125764EF540F31
:10533B00FFBF0607E4900147F0A3F090014774FF0D
:10534B00F5F0122A5745F070DF229001477427F0D1
:10535B00A37410F07D087F6012574D7F6112576464
:10536B00EF540FFFBF0507E4900147F0A3F0900146
:10537B004774FFF5F0122A5745F070DF2212585789
:10538B007FD07E071255121252897F61125764EF3C
:10539B00441054DFFD7F6112574D7F62125764EF4B
:1053AB004420FD7F6212574DE4FF1255DB023BE2B6
:1053BB009080257401F0E4FB7F017E00125512D220
:1053CB00C4ED25E0FD30C5054401FD8004ED54FE20
:1053DB00FD7F017E00125512C2C40BEBB408D9AF8E
:1053EB0005229001477427F0A37410F0FD7F601223
:1053FB00574D7F61125764EF540FFFBF0107E490C5
:10540B000147F0A3F090014774FFF5F0122A5745BE
:10541B00F070DF22900101E0541DF0E054FBF0A38B
:10542B00E054F7F0A3E054F7F0A3E054FEF0E0549F
:10543B00FDF0E054F7F0900109E054F7F090010C07
:10544B00E054F7F022AD079080257402F0E4FBEDF9
:10545B0030E704D2C58002C2C5ED25E0FD7F017E99
:10546B0000125512D2C47F017E00125512C2C40B1A
:10547B00EBB408DB22AC0790014BE0F5E5A3E0F5BC
:10548B00E4AF03EFC454F0FFAE05EEC4333354C0A6
:10549B004FFF90014AE04FF5E2AF04EFC43354E005
:1054AB00F5E122AC06C2AFE490FC01F090FC037472
:1054BB002AF0EC90FC06F090FC05EFF090FC0174E8
:1054CB0001F090FC02E0FF90FC0374AAF0D2AF2233
:1054DB00AA06C2AFE490FC01F090FC03742AF0EA38
:1054EB0090FC06F090FC05EFF090FC017402F0903C
:1054FB00FC02EDF090FC0374AAF0D2AF22AD07D200
:10550B00C7C2C67F027E0090015CE4F0A3740AF070
:10551B0090015C74FFF5F0122A5745F070F2EF1F03
:10552B00AC0670011E4C70DF229001B2EEF0A3EFBF
:10553B00F09001B47478F09001B4E014FFF0EF70C8
:10554B00F69001B274FF75F0FF122A41AFF0FEEF37
:10555B004E70DE22A9077DD07C079000A6E01313C6
:10556B00543F20E003E4FCFDED1DAA0470011C4A2E
:10557B0070E89000A6E04404F0AF018FA22243B084
:10558B00207F017E0012582D43B0107F017E001248
:10559B00582D53B0DF7F017E0012582D53B0EF7F93
:1055AB00017E0012582D2253B0EF7F017E0012585E
:1055BB002D53B0DF7F017E0012582D43B0107F01B9
:1055CB007E0012582D43B0207F147E0012582D22DE
:1055DB00900156EFF07F0D125764900156E0600A70
:1055EB00EF448044404420FF8008EF547F54BF5465
:1055FB00DFFFAD077F0D02574D90801D7422F053D6
:10560B00B0DF7F017E0012582D43B0107F037E0068
:10561B0012582D53B0EF7F017E0012582D43B0204E
:10562B002253B0EF90801D7422F07F017E00125840
:10563B002D43B0207F037E0012582D43B0107F0105
:10564B007E0012582D53B0EF22AC07AA0543F1028E
:10565B007F017E0012581FE5F454E04CF5F4AF02C5
:10566B008FF3AF038FF27F057E0012581F53F1FDAE
:10567B0022C2C49080247402F0D2C5908025F0D24F
:10568B00C69080267422F0D2C7908027F09080239A
:10569B0014F07F0A7E000255127F06125734E490F5
:1056AB000008F0900033122BFF0000000090000464
:1056BB00122BFF0000000022EF14600E1470177DF8
:1056CB000A7F07124FF07F2180097D067F07124F5B
:1056DB00F07F03125865227F06900174E4F0A3DF7C
:1056EB00FCE490017FF090017CF090017AF0A3F044
:1056FB0090017DF022E4900101F0A3F0A3F0A3F060
:10570B00A3F0900107F0900109F0A3F0A3F0229011
:10571B00801D7421F043B02043B0107F037E001234
:10572B00582D53B0EF7422F022AA071255897FEC43
:10573B0012522212571AAF0212522212571A125534
:10574B00B222AA05125508ED547FFF125450AF0236
:10575B0012545012550ED2C622125508ED4480FF3A
:10576B001254501253BBAD0712550ED2C6AF0522C1
:10577B007F6E125764900147EFF07D017F6C1257DB
:10578B004D900147E0FF227F6E125764900147EF67
:10579B00F07D027F6C12574D900147E0FF22538939
:1057AB00F0438901758A82758CFFC28DD2A9D28C88
:1057BB00229001A374AAF0E49001A5F0A3F0D28586
:1057CB00D2862290019BE5F2F0A3E5F3F0E5F454C9
:1057DB001FA3F0228FF7ECF5D1AF058FDFEAF5D3DE
:1057EB00AF038FD2227F69125764EF54FE54FBFD37
:1057FB007F6902574D7F69125764EF44014404FDE2
:10580B007F6902574DE4FEAF06E4FD1200030EEE76
:10581B00B412F4227D23DDFEEF1F70011E144E70B7
:10582B00F3220000EF1FAC0670011E4C70F4228FA8
:10583B00ECAF058FEBAF038FEA22E58654F0FFEF59
:10584B00440EF5862290FC04747EF0227DFF7F7F50
:10585B0002574DAD077F6502574DAD077F68025765
:10586B004D4100F4010075EFC9228FDB228FDA2244
:10587B000000016602EC031D04F005800614070806
:10588B00089109020A020BD00CAE0DE00E350F0089
:10589B00100011F4121013E2144215201600178198
:1058AB00184219F31AED1B1C1C421DDD1E3B1F1C5D
:1058BB0020D321642210233324D12535260D270A2A
:1058CB00289F294B2A292B282CC02D282E0A2F53F1
:1058DB003008310032B43300340035013600370064
:1058EB00381239083A003BAA3C163D003E003F00F7
:1058FB004000413C427E433C447E4505461F4700E9
:10590B00480049004A004B004C034DFF4EFF4F60CF
:10591B0050FF5100520953405490557056FE570694
:10592B005800590F5A705B005C8A5D185E3F5F6AC6
:10593B000000016602EC031D04F005800614070845
:10594B00089109020A020BD00CAE0DE00E350F00C8
:10595B00100011F4121013E21442152016001781D7
:10596B00184219711ACE1B1C1C421D5B1E1C1F1CDE
:10597B002054212822B023CC240025002600270008
:10598B00280029002A002B292CC02D642E192F5BEF
:10599B00300731003250332D3400350136053705D1
:1059AB00381039063A003BAA3C263D003E003F002A
:1059BB004000413C427E433C447E4505461F470028
:1059CB00480049004A004B004C034DFF4EFF4F600F
:1059DB0050FF51005204530954905555569A570C89
:1059EB00580059095AB05B005C8A5D185E3F5F6ACC
:1059FB0016880000000000760201012D4B12380BB7
:105A0B00B821CA78050106020000F505B69747D301
:105A1B00F385F7D767E233E5C6F0E675F202E77078
:00000001FF
